{
  "_format": "hh-sol-artifact-1",
  "contractName": "BlobRollup",
  "sourceName": "contracts/BlobRollup.sol",
  "abi": [
    {
      "inputs": [],
      "stateMutability": "nonpayable",
      "type": "constructor"
    },
    {
      "anonymous": false,
      "inputs": [
        {
          "indexed": false,
          "internalType": "uint64",
          "name": "batchNum",
          "type": "uint64"
        }
      ],
      "name": "Challenge",
      "type": "event"
    },
    {
      "inputs": [
        {
          "internalType": "uint64",
          "name": "",
          "type": "uint64"
        }
      ],
      "name": "batchToVersionHash",
      "outputs": [
        {
          "internalType": "bytes32",
          "name": "",
          "type": "bytes32"
        }
      ],
      "stateMutability": "view",
      "type": "function"
    },
    {
      "inputs": [
        {
          "internalType": "uint64",
          "name": "batchNum",
          "type": "uint64"
        }
      ],
      "name": "challenge",
      "outputs": [],
      "stateMutability": "nonpayable",
      "type": "function"
    },
    {
      "inputs": [],
      "name": "dataHash",
      "outputs": [
        {
          "internalType": "bytes32",
          "name": "",
          "type": "bytes32"
        }
      ],
      "stateMutability": "view",
      "type": "function"
    },
    {
      "inputs": [
        {
          "internalType": "bytes",
          "name": "input",
          "type": "bytes"
        }
      ],
      "name": "evaluation",
      "outputs": [
        {
          "internalType": "bytes",
          "name": "_output",
          "type": "bytes"
        }
      ],
      "stateMutability": "view",
      "type": "function"
    },
    {
      "inputs": [],
      "name": "getDataHash",
      "outputs": [
        {
          "internalType": "bytes32",
          "name": "",
          "type": "bytes32"
        }
      ],
      "stateMutability": "view",
      "type": "function"
    },
    {
      "inputs": [
        {
          "internalType": "bytes",
          "name": "txs",
          "type": "bytes"
        }
      ],
      "name": "getPointValue",
      "outputs": [
        {
          "internalType": "uint256",
          "name": "",
          "type": "uint256"
        }
      ],
      "stateMutability": "pure",
      "type": "function"
    },
    {
      "inputs": [],
      "name": "hashGetter",
      "outputs": [
        {
          "internalType": "address",
          "name": "",
          "type": "address"
        }
      ],
      "stateMutability": "view",
      "type": "function"
    },
    {
      "inputs": [],
      "name": "lastBatchSequenced",
      "outputs": [
        {
          "internalType": "uint64",
          "name": "",
          "type": "uint64"
        }
      ],
      "stateMutability": "view",
      "type": "function"
    },
    {
      "inputs": [],
      "name": "lastL2BlockNumber",
      "outputs": [
        {
          "internalType": "uint64",
          "name": "",
          "type": "uint64"
        }
      ],
      "stateMutability": "view",
      "type": "function"
    },
    {
      "inputs": [
        {
          "components": [
            {
              "internalType": "uint64",
              "name": "blockNumber",
              "type": "uint64"
            },
            {
              "internalType": "bytes",
              "name": "blockWitness",
              "type": "bytes"
            },
            {
              "internalType": "bytes32",
              "name": "preStateRoot",
              "type": "bytes32"
            },
            {
              "internalType": "bytes32",
              "name": "postStateRoot",
              "type": "bytes32"
            },
            {
              "internalType": "bytes32",
              "name": "withdrawalRoot",
              "type": "bytes32"
            },
            {
              "components": [
                {
                  "internalType": "bytes[]",
                  "name": "signers",
                  "type": "bytes[]"
                },
                {
                  "internalType": "bytes",
                  "name": "signature",
                  "type": "bytes"
                }
              ],
              "internalType": "struct BlobRollup.BatchSignature",
              "name": "signature",
              "type": "tuple"
            }
          ],
          "internalType": "struct BlobRollup.BatchData[]",
          "name": "batches",
          "type": "tuple[]"
        }
      ],
      "name": "prove",
      "outputs": [],
      "stateMutability": "nonpayable",
      "type": "function"
    },
    {
      "inputs": [
        {
          "internalType": "uint64",
          "name": "",
          "type": "uint64"
        }
      ],
      "name": "storageBatchs",
      "outputs": [
        {
          "internalType": "uint64",
          "name": "blockNumber",
          "type": "uint64"
        },
        {
          "internalType": "bytes32",
          "name": "withdrawalRoot",
          "type": "bytes32"
        },
        {
          "internalType": "bytes32",
          "name": "commitment",
          "type": "bytes32"
        },
        {
          "internalType": "bytes32",
          "name": "stateRoot",
          "type": "bytes32"
        },
        {
          "internalType": "uint256",
          "name": "originTimestamp",
          "type": "uint256"
        }
      ],
      "stateMutability": "view",
      "type": "function"
    },
    {
      "inputs": [
        {
          "components": [
            {
              "internalType": "uint64",
              "name": "blockNumber",
              "type": "uint64"
            },
            {
              "internalType": "bytes",
              "name": "blockWitness",
              "type": "bytes"
            },
            {
              "internalType": "bytes32",
              "name": "preStateRoot",
              "type": "bytes32"
            },
            {
              "internalType": "bytes32",
              "name": "postStateRoot",
              "type": "bytes32"
            },
            {
              "internalType": "bytes32",
              "name": "withdrawalRoot",
              "type": "bytes32"
            },
            {
              "components": [
                {
                  "internalType": "bytes[]",
                  "name": "signers",
                  "type": "bytes[]"
                },
                {
                  "internalType": "bytes",
                  "name": "signature",
                  "type": "bytes"
                }
              ],
              "internalType": "struct BlobRollup.BatchSignature",
              "name": "signature",
              "type": "tuple"
            }
          ],
          "internalType": "struct BlobRollup.BatchData[]",
          "name": "batches",
          "type": "tuple[]"
        }
      ],
      "name": "submit",
      "outputs": [],
      "stateMutability": "nonpayable",
      "type": "function"
    },
    {
      "inputs": [
        {
          "internalType": "bytes32",
          "name": "",
          "type": "bytes32"
        }
      ],
      "name": "withdrawalRoots",
      "outputs": [
        {
          "internalType": "uint64",
          "name": "batchIndex",
          "type": "uint64"
        },
        {
          "internalType": "uint256",
          "name": "timestamp",
          "type": "uint256"
        }
      ],
      "stateMutability": "view",
      "type": "function"
    }
  ],
  "bytecode": "0x608060405234801561001057600080fd5b5060405161001d9061007f565b604051809103906000f080158015610039573d6000803e3d6000fd5b50600360006101000a81548173ffffffffffffffffffffffffffffffffffffffff021916908373ffffffffffffffffffffffffffffffffffffffff16021790555061008b565b604c80611c5f83390190565b611bc58061009a6000396000f3fe608060405234801561001057600080fd5b50600436106100cf5760003560e01c8063c5923e431161008c578063e5ec2a6511610066578063e5ec2a651461022b578063eff6fc1214610249578063f02deda114610265578063f4b10abc14610283576100cf565b8063c5923e4314610197578063e291c2f5146101c7578063e53c14c0146101fb576100cf565b806304d77215146100d45780630f30b953146101055780631a00cab1146101215780631b3012a31461013d578063423fa8561461015b578063a4da229014610179575b600080fd5b6100ee60048036038101906100e99190611065565b6102b3565b6040516100fc9291906110ce565b60405180910390f35b61011f600480360381019061011a919061115c565b6102eb565b005b61013b6004803603810190610136919061115c565b6106b6565b005b6101456106ba565b60405161015291906111b8565b60405180910390f35b6101636106c0565b60405161017091906111d3565b60405180910390f35b6101816106da565b60405161018e91906111b8565b60405180910390f35b6101b160048036038101906101ac9190611244565b6106e4565b6040516101be9190611291565b60405180910390f35b6101e160048036038101906101dc91906112d8565b6107a2565b6040516101f2959493929190611305565b60405180910390f35b61021560048036038101906102109190611244565b6107ec565b60405161022291906113e8565b60405180910390f35b6102336108b3565b604051610240919061144b565b60405180910390f35b610263600480360381019061025e91906112d8565b6108d9565b005b61026d610913565b60405161027a91906111d3565b60405180910390f35b61029d600480360381019061029891906112d8565b61092d565b6040516102aa91906111b8565b60405180910390f35b60006020528060005260406000206000915090508060000160009054906101000a900467ffffffffffffffff16908060010154905082565b600061031a600360009054906101000a900473ffffffffffffffffffffffffffffffffffffffff166000610945565b90508060048190555060008383905090506000600260009054906101000a900467ffffffffffffffff16905060005b8281101561061a57600060639050600080600e620110769150915060006103a78383868d8d8a81811061037f5761037e611466565b5b905060200281019061039191906114a4565b80602001906103a091906114cc565b60016109ab565b905060008a8a878181106103be576103bd611466565b5b90506020028101906103d091906114a4565b6060013590506000602083510260208401209050600042905088806103f49061155e565b99505060008060008f8f8c81811061040f5761040e611466565b5b905060200281019061042191906114a4565b60800135815260200190815260200160002060000160009054906101000a900467ffffffffffffffff1667ffffffffffffffff16036104f05760405180604001604052808a67ffffffffffffffff168152602001828152506000808f8f8c81811061048f5761048e611466565b5b90506020028101906104a191906114a4565b60800135815260200190815260200160002060008201518160000160006101000a81548167ffffffffffffffff021916908367ffffffffffffffff160217905550602082015181600101559050505b6040518060a001604052808e8e8b81811061050e5761050d611466565b5b905060200281019061052091906114a4565b600001602081019061053291906112d8565b67ffffffffffffffff1681526020018e8e8b81811061055457610553611466565b5b905060200281019061056691906114a4565b60800135815260200183815260200184815260200182815250600160008b67ffffffffffffffff1667ffffffffffffffff16815260200190815260200160002060008201518160000160006101000a81548167ffffffffffffffff021916908367ffffffffffffffff160217905550602082015181600101556040820151816002015560608201518160030155608082015181600401559050505050505050505080806106129061158e565b915050610349565b5080600260006101000a81548167ffffffffffffffff021916908367ffffffffffffffff160217905550848460018461065391906115d6565b81811061066357610662611466565b5b905060200281019061067591906114a4565b600001602081019061068791906112d8565b600260086101000a81548167ffffffffffffffff021916908367ffffffffffffffff1602179055505050505050565b5050565b60045481565b600260009054906101000a900467ffffffffffffffff1681565b6000600454905090565b60008061073484848080601f016020809104026020016040519081016040528093929190818152602001838380828437600081840152601f19601f820116905080830192505050505050506109b7565b905060008160008151811061074c5761074b611466565b5b6020026020010151600001519050600061076582610b61565b90506000610793827f267762ab802631f2395fde004449c850cf5be841876a9042c0d2eea57b1922f0610ccd565b90508094505050505092915050565b60016020528060005260406000206000915090508060000160009054906101000a900467ffffffffffffffff16908060010154908060020154908060030154908060040154905085565b60606000600a90506000808273ffffffffffffffffffffffffffffffffffffffff1661c3508787604051610821929190611649565b6000604051808303818686fa925050503d806000811461085d576040519150601f19603f3d011682016040523d82523d6000602084013e610862565b606091505b5091509150816108a7576040517f08c379a000000000000000000000000000000000000000000000000000000000815260040161089e906116e5565b60405180910390fd5b80935050505092915050565b600360009054906101000a900473ffffffffffffffffffffffffffffffffffffffff1681565b7f7da0610d1319f5b4847cddae888b1c8022030c5b06b912f67d7c8cd6ca8d39cc8160405161090891906111d3565b60405180910390a150565b600260089054906101000a900467ffffffffffffffff1681565b60056020528060005260406000206000915090505481565b6000806000836000526020600060206000885afa91506000519050816109a0576040517f08c379a000000000000000000000000000000000000000000000000000000000815260040161099790611751565b60405180910390fd5b809250505092915050565b60609695505050505050565b606060008251905060006104006103ff836109d29190611771565b6109dc91906117d4565b905060008167ffffffffffffffff8111156109fa576109f9611805565b5b604051908082528060200260200182016040528015610a3357816020015b610a20610fe7565b815260200190600190039081610a185790505b50905060008060005b85811015610b53576110008203610a60578280610a589061158e565b935050600091505b600086601f83610a709190611771565b11610a8757601f82610a829190611771565b610a89565b865b90506000808390505b82811015610af2578381610aa691906115d6565b6008610ab29190611834565b8b8281518110610ac557610ac4611466565b5b602001015160f81c60f81b60f81c60ff16901b60001b821791508080610aea9061158e565b915050610a92565b5080868681518110610b0757610b06611466565b5b602002602001015160000151856110008110610b2657610b25611466565b5b6020020181815250508380610b3a9061158e565b9450505050601f81610b4c9190611771565b9050610a3c565b508295505050505050919050565b60606000611000905060007f73eda753299d7d483339d80809a1d80553bda402fffe5bfeffffffff0000000190508161100014610bd3576040517f08c379a0000000000000000000000000000000000000000000000000000000008152600401610bca906118c2565b60405180910390fd5b60008267ffffffffffffffff811115610bef57610bee611805565b5b604051908082528060200260200182016040528015610c1d5781602001602082028036833780820191505090505b50905060005b83811015610cc157600086826110008110610c4157610c40611466565b5b602002015160001c9050838110610c8d576040517f08c379a0000000000000000000000000000000000000000000000000000000008152600401610c8490611954565b60405180910390fd5b80838381518110610ca157610ca0611466565b5b602002602001018181525050508080610cb99061158e565b915050610c23565b50809350505050919050565b6000611000835114610d14576040517f08c379a0000000000000000000000000000000000000000000000000000000008152600401610d0b906119c0565b60405180910390fd5b6000835190506000610d46827f73eda753299d7d483339d80809a1d80553bda402fffe5bfeffffffff00000001610f07565b90506000805b83811015610e9f576000610d5f82610fa1565b905060007f73eda753299d7d483339d80809a1d80553bda402fffe5bfeffffffff00000001828a8481518110610d9857610d97611466565b5b6020026020010151610daa9190611834565b610db491906119e0565b905060007f73eda753299d7d483339d80809a1d80553bda402fffe5bfeffffffff00000001838a7f73eda753299d7d483339d80809a1d80553bda402fffe5bfeffffffff00000001610e069190611771565b610e1091906115d6565b610e1a91906119e0565b90507f73eda753299d7d483339d80809a1d80553bda402fffe5bfeffffffff00000001610e67827f73eda753299d7d483339d80809a1d80553bda402fffe5bfeffffffff00000001610f07565b83610e729190611834565b610e7c91906119e0565b85610e879190611771565b94505050508080610e979061158e565b915050610d4c565b507f73eda753299d7d483339d80809a1d80553bda402fffe5bfeffffffff000000018360018588610ed09190611b44565b610eda91906115d6565b610ee491906117d4565b82610eef9190611834565b610ef991906119e0565b905080935050505092915050565b6000808303610f195760009050610f9b565b6000600283610f2891906115d6565b90506000600190505b6000821115610f95576001600283610f4991906119e0565b03610f6857838582610f5b9190611834565b610f6591906119e0565b90505b838586610f759190611834565b610f7f91906119e0565b9450600282610f8e91906117d4565b9150610f31565b80925050505b92915050565b6000806000905060005b600c811015610fdd57600182901b91506001841682179150600184901c93508080610fd59061158e565b915050610fab565b5080915050919050565b6040518060200160405280610ffa611000565b81525090565b6040518062020000016040528061100090602082028036833780820191505090505090565b600080fd5b600080fd5b6000819050919050565b6110428161102f565b811461104d57600080fd5b50565b60008135905061105f81611039565b92915050565b60006020828403121561107b5761107a611025565b5b600061108984828501611050565b91505092915050565b600067ffffffffffffffff82169050919050565b6110af81611092565b82525050565b6000819050919050565b6110c8816110b5565b82525050565b60006040820190506110e360008301856110a6565b6110f060208301846110bf565b9392505050565b600080fd5b600080fd5b600080fd5b60008083601f84011261111c5761111b6110f7565b5b8235905067ffffffffffffffff811115611139576111386110fc565b5b60208301915083602082028301111561115557611154611101565b5b9250929050565b6000806020838503121561117357611172611025565b5b600083013567ffffffffffffffff8111156111915761119061102a565b5b61119d85828601611106565b92509250509250929050565b6111b28161102f565b82525050565b60006020820190506111cd60008301846111a9565b92915050565b60006020820190506111e860008301846110a6565b92915050565b60008083601f840112611204576112036110f7565b5b8235905067ffffffffffffffff811115611221576112206110fc565b5b60208301915083600182028301111561123d5761123c611101565b5b9250929050565b6000806020838503121561125b5761125a611025565b5b600083013567ffffffffffffffff8111156112795761127861102a565b5b611285858286016111ee565b92509250509250929050565b60006020820190506112a660008301846110bf565b92915050565b6112b581611092565b81146112c057600080fd5b50565b6000813590506112d2816112ac565b92915050565b6000602082840312156112ee576112ed611025565b5b60006112fc848285016112c3565b91505092915050565b600060a08201905061131a60008301886110a6565b61132760208301876111a9565b61133460408301866111a9565b61134160608301856111a9565b61134e60808301846110bf565b9695505050505050565b600081519050919050565b600082825260208201905092915050565b60005b83811015611392578082015181840152602081019050611377565b60008484015250505050565b6000601f19601f8301169050919050565b60006113ba82611358565b6113c48185611363565b93506113d4818560208601611374565b6113dd8161139e565b840191505092915050565b6000602082019050818103600083015261140281846113af565b905092915050565b600073ffffffffffffffffffffffffffffffffffffffff82169050919050565b60006114358261140a565b9050919050565b6114458161142a565b82525050565b6000602082019050611460600083018461143c565b92915050565b7f4e487b7100000000000000000000000000000000000000000000000000000000600052603260045260246000fd5b600080fd5b600080fd5b600080fd5b60008235600160c0038336030381126114c0576114bf611495565b5b80830191505092915050565b600080833560016020038436030381126114e9576114e8611495565b5b80840192508235915067ffffffffffffffff82111561150b5761150a61149a565b5b6020830192506001820236038313156115275761152661149f565b5b509250929050565b7f4e487b7100000000000000000000000000000000000000000000000000000000600052601160045260246000fd5b600061156982611092565b915067ffffffffffffffff82036115835761158261152f565b5b600182019050919050565b6000611599826110b5565b91507fffffffffffffffffffffffffffffffffffffffffffffffffffffffffffffffff82036115cb576115ca61152f565b5b600182019050919050565b60006115e1826110b5565b91506115ec836110b5565b92508282039050818111156116045761160361152f565b5b92915050565b600081905092915050565b82818337600083830152505050565b6000611630838561160a565b935061163d838584611615565b82840190509392505050565b6000611656828486611624565b91508190509392505050565b600082825260208201905092915050565b7f504f494e545f4556414c554154494f4e5f505245434f4d50494c45204552524f60008201527f5200000000000000000000000000000000000000000000000000000000000000602082015250565b60006116cf602183611662565b91506116da82611673565b604082019050919050565b600060208201905081810360008301526116fe816116c2565b9050919050565b7f6661696c656420746f2067657420626c6f622068617368000000000000000000600082015250565b600061173b601783611662565b915061174682611705565b602082019050919050565b6000602082019050818103600083015261176a8161172e565b9050919050565b600061177c826110b5565b9150611787836110b5565b925082820190508082111561179f5761179e61152f565b5b92915050565b7f4e487b7100000000000000000000000000000000000000000000000000000000600052601260045260246000fd5b60006117df826110b5565b91506117ea836110b5565b9250826117fa576117f96117a5565b5b828204905092915050565b7f4e487b7100000000000000000000000000000000000000000000000000000000600052604160045260246000fd5b600061183f826110b5565b915061184a836110b5565b9250828202611858816110b5565b9150828204841483151761186f5761186e61152f565b5b5092915050565b7f496e76616c696420626c6f62206c656e67746800000000000000000000000000600082015250565b60006118ac601383611662565b91506118b782611876565b602082019050919050565b600060208201905081810360008301526118db8161189f565b9050919050565b7f4669656c6420656c656d656e74206d757374206265206c657373207468616e2060008201527f424c53206d6f64756c7573000000000000000000000000000000000000000000602082015250565b600061193e602b83611662565b9150611949826118e2565b604082019050919050565b6000602082019050818103600083015261196d81611931565b9050919050565b7f496e76616c696420706f6c796e6f6d69616c206c656e67746800000000000000600082015250565b60006119aa601983611662565b91506119b582611974565b602082019050919050565b600060208201905081810360008301526119d98161199d565b9050919050565b60006119eb826110b5565b91506119f6836110b5565b925082611a0657611a056117a5565b5b828206905092915050565b60008160011c9050919050565b6000808291508390505b6001851115611a6857808604811115611a4457611a4361152f565b5b6001851615611a535780820291505b8081029050611a6185611a11565b9450611a28565b94509492505050565b600082611a815760019050611b3d565b81611a8f5760009050611b3d565b8160018114611aa55760028114611aaf57611ade565b6001915050611b3d565b60ff841115611ac157611ac061152f565b5b8360020a915084821115611ad857611ad761152f565b5b50611b3d565b5060208310610133831016604e8410600b8410161715611b135782820a905083811115611b0e57611b0d61152f565b5b611b3d565b611b208484846001611a1e565b92509050818404811115611b3757611b3661152f565b5b81810290505b9392505050565b6000611b4f826110b5565b9150611b5a836110b5565b9250611b877fffffffffffffffffffffffffffffffffffffffffffffffffffffffffffffffff8484611a71565b90509291505056fea2646970667358221220bbca8bc42417f2963f4a85b87fe71681b3bedd662a5885cefd99b7452c77663964736f6c63430008120033608060405260006040518060400160405280600c81526020017f6000354960005260206000f3000000000000000000000000000000000000000081525090506000815190508060208301f3fe",
  "linkReferences": {},
  "deployedLinkReferences": {}
}